{
  "_format": "hh-sol-artifact-1",
  "contractName": "stakingContract",
  "sourceName": "contracts/stakingContract.sol",
  "abi": [
    {
      "inputs": [],
      "stateMutability": "nonpayable",
      "type": "constructor"
    },
    {
      "inputs": [
        {
          "internalType": "uint256",
          "name": "amount",
          "type": "uint256"
        }
      ],
      "name": "stake7Days",
      "outputs": [],
      "stateMutability": "nonpayable",
      "type": "function"
    },
    {
      "inputs": [
        {
          "internalType": "address",
          "name": "",
          "type": "address"
        }
      ],
      "name": "stakingStatus",
      "outputs": [
        {
          "internalType": "uint256",
          "name": "amount",
          "type": "uint256"
        },
        {
          "internalType": "uint256",
          "name": "startTime",
          "type": "uint256"
        },
        {
          "internalType": "uint256",
          "name": "unlockTime",
          "type": "uint256"
        },
        {
          "internalType": "bool",
          "name": "isStaking",
          "type": "bool"
        }
      ],
      "stateMutability": "view",
      "type": "function"
    },
    {
      "inputs": [],
      "name": "token",
      "outputs": [
        {
          "internalType": "contract TokenForDefi",
          "name": "",
          "type": "address"
        }
      ],
      "stateMutability": "view",
      "type": "function"
    },
    {
      "inputs": [],
      "name": "unstake",
      "outputs": [],
      "stateMutability": "nonpayable",
      "type": "function"
    }
  ],
  "bytecode": "0x608060405234801561001057600080fd5b5073d7772b88e0f9ef10e5ce8a5717c3f5569c2df97f6000806101000a81548173ffffffffffffffffffffffffffffffffffffffff021916908373ffffffffffffffffffffffffffffffffffffffff1602179055506000600260006101000a81548160ff021916908315150217905550610de98061008f6000396000f3fe608060405234801561001057600080fd5b506004361061004c5760003560e01c80630f544ac7146100515780632def66201461006d5780634837eb1f14610077578063fc0c546a146100aa575b600080fd5b61006b600480360381019061006691906108e7565b6100c8565b005b61007561034e565b005b610091600480360381019061008c9190610895565b6107f5565b6040516100a19493929190610b39565b60405180910390f35b6100b2610832565b6040516100bf9190610a83565b60405180910390f35b60001515600160003373ffffffffffffffffffffffffffffffffffffffff1673ffffffffffffffffffffffffffffffffffffffff16815260200190815260200160002060030160009054906101000a900460ff1615151461015e576040517f08c379a000000000000000000000000000000000000000000000000000000000815260040161015590610afe565b60405180910390fd5b60008054906101000a900473ffffffffffffffffffffffffffffffffffffffff1673ffffffffffffffffffffffffffffffffffffffff166323b872dd3330846040518463ffffffff1660e01b81526004016101bb93929190610a4c565b602060405180830381600087803b1580156101d557600080fd5b505af11580156101e9573d6000803e3d6000fd5b505050506040513d601f19601f8201168201806040525081019061020d91906108be565b5080600160003373ffffffffffffffffffffffffffffffffffffffff1673ffffffffffffffffffffffffffffffffffffffff1681526020019081526020016000206000018190555042600160003373ffffffffffffffffffffffffffffffffffffffff1673ffffffffffffffffffffffffffffffffffffffff1681526020019081526020016000206001018190555062093a80426102ab9190610b8f565b600160003373ffffffffffffffffffffffffffffffffffffffff1673ffffffffffffffffffffffffffffffffffffffff1681526020019081526020016000206002018190555060018060003373ffffffffffffffffffffffffffffffffffffffff1673ffffffffffffffffffffffffffffffffffffffff16815260200190815260200160002060030160006101000a81548160ff02191690831515021790555050565b60011515600160003373ffffffffffffffffffffffffffffffffffffffff1673ffffffffffffffffffffffffffffffffffffffff16815260200190815260200160002060030160009054906101000a900460ff161515146103e4576040517f08c379a00000000000000000000000000000000000000000000000000000000081526004016103db90610a9e565b60405180910390fd5b600160003373ffffffffffffffffffffffffffffffffffffffff1673ffffffffffffffffffffffffffffffffffffffff16815260200190815260200160002060020154421015610469576040517f08c379a000000000000000000000000000000000000000000000000000000000815260040161046090610abe565b60405180910390fd5b60001515600260009054906101000a900460ff161515146104bf576040517f08c379a00000000000000000000000000000000000000000000000000000000081526004016104b690610ade565b60405180910390fd5b6001600260006101000a81548160ff021916908315150217905550600061016d62015180600160003373ffffffffffffffffffffffffffffffffffffffff1673ffffffffffffffffffffffffffffffffffffffff16815260200190815260200160002060010154426105319190610c70565b61053b9190610be5565b6105459190610be5565b905060008054906101000a900473ffffffffffffffffffffffffffffffffffffffff1673ffffffffffffffffffffffffffffffffffffffff1663c634d032600160003373ffffffffffffffffffffffffffffffffffffffff1673ffffffffffffffffffffffffffffffffffffffff16815260200190815260200160002060000154836105d19190610c16565b6040518263ffffffff1660e01b81526004016105ed9190610b1e565b600060405180830381600087803b15801561060757600080fd5b505af115801561061b573d6000803e3d6000fd5b5050505060008054906101000a900473ffffffffffffffffffffffffffffffffffffffff1673ffffffffffffffffffffffffffffffffffffffff166323b872dd3033600160003373ffffffffffffffffffffffffffffffffffffffff1673ffffffffffffffffffffffffffffffffffffffff16815260200190815260200160002060000154856106ab9190610c16565b600160003373ffffffffffffffffffffffffffffffffffffffff1673ffffffffffffffffffffffffffffffffffffffff168152602001908152602001600020600001546106f89190610b8f565b6040518463ffffffff1660e01b815260040161071693929190610a4c565b602060405180830381600087803b15801561073057600080fd5b505af1158015610744573d6000803e3d6000fd5b505050506040513d601f19601f8201168201806040525081019061076891906108be565b50600160003373ffffffffffffffffffffffffffffffffffffffff1673ffffffffffffffffffffffffffffffffffffffff168152602001908152602001600020600080820160009055600182016000905560028201600090556003820160006101000a81549060ff021916905550506000600260006101000a81548160ff02191690831515021790555050565b60016020528060005260406000206000915090508060000154908060010154908060020154908060030160009054906101000a900460ff16905084565b60008054906101000a900473ffffffffffffffffffffffffffffffffffffffff1681565b60008135905061086581610d6e565b92915050565b60008151905061087a81610d85565b92915050565b60008135905061088f81610d9c565b92915050565b6000602082840312156108a757600080fd5b60006108b584828501610856565b91505092915050565b6000602082840312156108d057600080fd5b60006108de8482850161086b565b91505092915050565b6000602082840312156108f957600080fd5b600061090784828501610880565b91505092915050565b61091981610ca4565b82525050565b61092881610cb6565b82525050565b61093781610cec565b82525050565b600061094a601083610b7e565b91507f796f75206469646e2774207374616b65000000000000000000000000000000006000830152602082019050919050565b600061098a601383610b7e565b91507f63616e206e6f7420756e7374616b6520796574000000000000000000000000006000830152602082019050919050565b60006109ca601083610b7e565b91507f63616e206e6f7420726520656e746572000000000000000000000000000000006000830152602082019050919050565b6000610a0a601783610b7e565b91507f796f752068617665207374616b656420616c72656164790000000000000000006000830152602082019050919050565b610a4681610ce2565b82525050565b6000606082019050610a616000830186610910565b610a6e6020830185610910565b610a7b6040830184610a3d565b949350505050565b6000602082019050610a98600083018461092e565b92915050565b60006020820190508181036000830152610ab78161093d565b9050919050565b60006020820190508181036000830152610ad78161097d565b9050919050565b60006020820190508181036000830152610af7816109bd565b9050919050565b60006020820190508181036000830152610b17816109fd565b9050919050565b6000602082019050610b336000830184610a3d565b92915050565b6000608082019050610b4e6000830187610a3d565b610b5b6020830186610a3d565b610b686040830185610a3d565b610b75606083018461091f565b95945050505050565b600082825260208201905092915050565b6000610b9a82610ce2565b9150610ba583610ce2565b9250827fffffffffffffffffffffffffffffffffffffffffffffffffffffffffffffffff03821115610bda57610bd9610d10565b5b828201905092915050565b6000610bf082610ce2565b9150610bfb83610ce2565b925082610c0b57610c0a610d3f565b5b828204905092915050565b6000610c2182610ce2565b9150610c2c83610ce2565b9250817fffffffffffffffffffffffffffffffffffffffffffffffffffffffffffffffff0483118215151615610c6557610c64610d10565b5b828202905092915050565b6000610c7b82610ce2565b9150610c8683610ce2565b925082821015610c9957610c98610d10565b5b828203905092915050565b6000610caf82610cc2565b9050919050565b60008115159050919050565b600073ffffffffffffffffffffffffffffffffffffffff82169050919050565b6000819050919050565b6000610cf782610cfe565b9050919050565b6000610d0982610cc2565b9050919050565b7f4e487b7100000000000000000000000000000000000000000000000000000000600052601160045260246000fd5b7f4e487b7100000000000000000000000000000000000000000000000000000000600052601260045260246000fd5b610d7781610ca4565b8114610d8257600080fd5b50565b610d8e81610cb6565b8114610d9957600080fd5b50565b610da581610ce2565b8114610db057600080fd5b5056fea26469706673582212208e4f10383c24a5cc17dd141a7bedb17cb70952f14d7e2b734b0c5f48276c97b464736f6c63430008000033",
  "linkReferences": {},
  "deployedLinkReferences": {}
}