{
  "_format": "hh-sol-artifact-1",
  "contractName": "TokenForDefi",
  "sourceName": "contracts/token/token.sol",
  "abi": [
    {
      "inputs": [],
      "stateMutability": "nonpayable",
      "type": "constructor"
    },
    {
      "anonymous": false,
      "inputs": [
        {
          "indexed": true,
          "internalType": "address",
          "name": "owner",
          "type": "address"
        },
        {
          "indexed": true,
          "internalType": "address",
          "name": "spender",
          "type": "address"
        },
        {
          "indexed": false,
          "internalType": "uint256",
          "name": "value",
          "type": "uint256"
        }
      ],
      "name": "Approval",
      "type": "event"
    },
    {
      "anonymous": false,
      "inputs": [
        {
          "indexed": true,
          "internalType": "address",
          "name": "from",
          "type": "address"
        },
        {
          "indexed": true,
          "internalType": "address",
          "name": "to",
          "type": "address"
        },
        {
          "indexed": false,
          "internalType": "uint256",
          "name": "value",
          "type": "uint256"
        }
      ],
      "name": "Transfer",
      "type": "event"
    },
    {
      "inputs": [
        {
          "internalType": "address",
          "name": "owner",
          "type": "address"
        },
        {
          "internalType": "address",
          "name": "spender",
          "type": "address"
        }
      ],
      "name": "allowance",
      "outputs": [
        {
          "internalType": "uint256",
          "name": "",
          "type": "uint256"
        }
      ],
      "stateMutability": "view",
      "type": "function"
    },
    {
      "inputs": [
        {
          "internalType": "address",
          "name": "spender",
          "type": "address"
        },
        {
          "internalType": "uint256",
          "name": "amount",
          "type": "uint256"
        }
      ],
      "name": "approve",
      "outputs": [
        {
          "internalType": "bool",
          "name": "",
          "type": "bool"
        }
      ],
      "stateMutability": "nonpayable",
      "type": "function"
    },
    {
      "inputs": [
        {
          "internalType": "address",
          "name": "account",
          "type": "address"
        }
      ],
      "name": "balanceOf",
      "outputs": [
        {
          "internalType": "uint256",
          "name": "",
          "type": "uint256"
        }
      ],
      "stateMutability": "view",
      "type": "function"
    },
    {
      "inputs": [
        {
          "internalType": "uint256",
          "name": "_amount",
          "type": "uint256"
        }
      ],
      "name": "burn",
      "outputs": [],
      "stateMutability": "nonpayable",
      "type": "function"
    },
    {
      "inputs": [
        {
          "internalType": "address",
          "name": "account",
          "type": "address"
        },
        {
          "internalType": "uint256",
          "name": "amount",
          "type": "uint256"
        }
      ],
      "name": "burnFrom",
      "outputs": [],
      "stateMutability": "nonpayable",
      "type": "function"
    },
    {
      "inputs": [],
      "name": "decimals",
      "outputs": [
        {
          "internalType": "uint8",
          "name": "",
          "type": "uint8"
        }
      ],
      "stateMutability": "view",
      "type": "function"
    },
    {
      "inputs": [
        {
          "internalType": "address",
          "name": "spender",
          "type": "address"
        },
        {
          "internalType": "uint256",
          "name": "subtractedValue",
          "type": "uint256"
        }
      ],
      "name": "decreaseAllowance",
      "outputs": [
        {
          "internalType": "bool",
          "name": "",
          "type": "bool"
        }
      ],
      "stateMutability": "nonpayable",
      "type": "function"
    },
    {
      "inputs": [
        {
          "internalType": "address",
          "name": "spender",
          "type": "address"
        },
        {
          "internalType": "uint256",
          "name": "addedValue",
          "type": "uint256"
        }
      ],
      "name": "increaseAllowance",
      "outputs": [
        {
          "internalType": "bool",
          "name": "",
          "type": "bool"
        }
      ],
      "stateMutability": "nonpayable",
      "type": "function"
    },
    {
      "inputs": [
        {
          "internalType": "uint256",
          "name": "_amount",
          "type": "uint256"
        }
      ],
      "name": "mintToken",
      "outputs": [],
      "stateMutability": "nonpayable",
      "type": "function"
    },
    {
      "inputs": [],
      "name": "name",
      "outputs": [
        {
          "internalType": "string",
          "name": "",
          "type": "string"
        }
      ],
      "stateMutability": "view",
      "type": "function"
    },
    {
      "inputs": [],
      "name": "symbol",
      "outputs": [
        {
          "internalType": "string",
          "name": "",
          "type": "string"
        }
      ],
      "stateMutability": "view",
      "type": "function"
    },
    {
      "inputs": [],
      "name": "totalSupply",
      "outputs": [
        {
          "internalType": "uint256",
          "name": "",
          "type": "uint256"
        }
      ],
      "stateMutability": "view",
      "type": "function"
    },
    {
      "inputs": [
        {
          "internalType": "address",
          "name": "to",
          "type": "address"
        },
        {
          "internalType": "uint256",
          "name": "amount",
          "type": "uint256"
        }
      ],
      "name": "transfer",
      "outputs": [
        {
          "internalType": "bool",
          "name": "",
          "type": "bool"
        }
      ],
      "stateMutability": "nonpayable",
      "type": "function"
    },
    {
      "inputs": [
        {
          "internalType": "address",
          "name": "from",
          "type": "address"
        },
        {
          "internalType": "address",
          "name": "to",
          "type": "address"
        },
        {
          "internalType": "uint256",
          "name": "amount",
          "type": "uint256"
        }
      ],
      "name": "transferFrom",
      "outputs": [
        {
          "internalType": "bool",
          "name": "",
          "type": "bool"
        }
      ],
      "stateMutability": "nonpayable",
      "type": "function"
    }
  ],
  "bytecode": "0x60806040523480156200001157600080fd5b506040518060400160405280600981526020017f44656669546f6b656e00000000000000000000000000000000000000000000008152506040518060400160405280600281526020017f445400000000000000000000000000000000000000000000000000000000000081525081600390805190602001906200009692919062000282565b508060049080519060200190620000af92919062000282565b505050620000f033620000c7620000f660201b60201c565b600a620000d591906200048d565b6103e8620000e49190620005ca565b620000ff60201b60201c565b620006e3565b60006012905090565b600073ffffffffffffffffffffffffffffffffffffffff168273ffffffffffffffffffffffffffffffffffffffff16141562000172576040517f08c379a0000000000000000000000000000000000000000000000000000000008152600401620001699062000385565b60405180910390fd5b62000186600083836200027860201b60201c565b80600260008282546200019a9190620003d5565b92505081905550806000808473ffffffffffffffffffffffffffffffffffffffff1673ffffffffffffffffffffffffffffffffffffffff1681526020019081526020016000206000828254620001f19190620003d5565b925050819055508173ffffffffffffffffffffffffffffffffffffffff16600073ffffffffffffffffffffffffffffffffffffffff167fddf252ad1be2c89b69c2b068fc378daa952ba7f163c4a11628f55a4df523b3ef83604051620002589190620003a7565b60405180910390a362000274600083836200027d60201b60201c565b5050565b505050565b505050565b828054620002909062000642565b90600052602060002090601f016020900481019282620002b4576000855562000300565b82601f10620002cf57805160ff191683800117855562000300565b8280016001018555821562000300579182015b82811115620002ff578251825591602001919060010190620002e2565b5b5090506200030f919062000313565b5090565b5b808211156200032e57600081600090555060010162000314565b5090565b600062000341601f83620003c4565b91507f45524332303a206d696e7420746f20746865207a65726f2061646472657373006000830152602082019050919050565b6200037f816200062b565b82525050565b60006020820190508181036000830152620003a08162000332565b9050919050565b6000602082019050620003be600083018462000374565b92915050565b600082825260208201905092915050565b6000620003e2826200062b565b9150620003ef836200062b565b9250827fffffffffffffffffffffffffffffffffffffffffffffffffffffffffffffffff0382111562000427576200042662000678565b5b828201905092915050565b6000808291508390505b600185111562000484578086048111156200045c576200045b62000678565b5b60018516156200046c5780820291505b80810290506200047c85620006d6565b94506200043c565b94509492505050565b60006200049a826200062b565b9150620004a78362000635565b9250620004d67fffffffffffffffffffffffffffffffffffffffffffffffffffffffffffffffff8484620004de565b905092915050565b600082620004f05760019050620005c3565b81620005005760009050620005c3565b816001811462000519576002811462000524576200055a565b6001915050620005c3565b60ff84111562000539576200053862000678565b5b8360020a91508482111562000553576200055262000678565b5b50620005c3565b5060208310610133831016604e8410600b8410161715620005945782820a9050838111156200058e576200058d62000678565b5b620005c3565b620005a3848484600162000432565b92509050818404811115620005bd57620005bc62000678565b5b81810290505b9392505050565b6000620005d7826200062b565b9150620005e4836200062b565b9250817fffffffffffffffffffffffffffffffffffffffffffffffffffffffffffffffff048311821515161562000620576200061f62000678565b5b828202905092915050565b6000819050919050565b600060ff82169050919050565b600060028204905060018216806200065b57607f821691505b60208210811415620006725762000671620006a7565b5b50919050565b7f4e487b7100000000000000000000000000000000000000000000000000000000600052601160045260246000fd5b7f4e487b7100000000000000000000000000000000000000000000000000000000600052602260045260246000fd5b60008160011c9050919050565b6118c280620006f36000396000f3fe608060405234801561001057600080fd5b50600436106100ea5760003560e01c806370a082311161008c578063a457c2d711610066578063a457c2d71461025f578063a9059cbb1461028f578063c634d032146102bf578063dd62ed3e146102db576100ea565b806370a08231146101f557806379cc67901461022557806395d89b4114610241576100ea565b806323b872dd116100c857806323b872dd1461015b578063313ce5671461018b57806339509351146101a957806342966c68146101d9576100ea565b806306fdde03146100ef578063095ea7b31461010d57806318160ddd1461013d575b600080fd5b6100f761030b565b60405161010491906114f7565b60405180910390f35b61012760048036038101906101229190611061565b61039d565b60405161013491906114dc565b60405180910390f35b6101456103c0565b6040516101529190611659565b60405180910390f35b61017560048036038101906101709190611012565b6103ca565b60405161018291906114dc565b60405180910390f35b6101936103f9565b6040516101a09190611674565b60405180910390f35b6101c360048036038101906101be9190611061565b610402565b6040516101d091906114dc565b60405180910390f35b6101f360048036038101906101ee919061109d565b6104ac565b005b61020f600480360381019061020a9190610fad565b6104b9565b60405161021c9190611659565b60405180910390f35b61023f600480360381019061023a9190611061565b610501565b005b610249610521565b60405161025691906114f7565b60405180910390f35b61027960048036038101906102749190611061565b6105b3565b60405161028691906114dc565b60405180910390f35b6102a960048036038101906102a49190611061565b61069d565b6040516102b691906114dc565b60405180910390f35b6102d960048036038101906102d4919061109d565b6106c0565b005b6102f560048036038101906102f09190610fd6565b6106db565b6040516103029190611659565b60405180910390f35b60606003805461031a906117bd565b80601f0160208091040260200160405190810160405280929190818152602001828054610346906117bd565b80156103935780601f1061036857610100808354040283529160200191610393565b820191906000526020600020905b81548152906001019060200180831161037657829003601f168201915b5050505050905090565b6000806103a8610762565b90506103b581858561076a565b600191505092915050565b6000600254905090565b6000806103d5610762565b90506103e2858285610935565b6103ed8585856109c1565b60019150509392505050565b60006012905090565b60008061040d610762565b90506104a1818585600160008673ffffffffffffffffffffffffffffffffffffffff1673ffffffffffffffffffffffffffffffffffffffff16815260200190815260200160002060008973ffffffffffffffffffffffffffffffffffffffff1673ffffffffffffffffffffffffffffffffffffffff1681526020019081526020016000205461049c91906116ab565b61076a565b600191505092915050565b6104b63382610c42565b50565b60008060008373ffffffffffffffffffffffffffffffffffffffff1673ffffffffffffffffffffffffffffffffffffffff168152602001908152602001600020549050919050565b6105138261050d610762565b83610935565b61051d8282610c42565b5050565b606060048054610530906117bd565b80601f016020809104026020016040519081016040528092919081815260200182805461055c906117bd565b80156105a95780601f1061057e576101008083540402835291602001916105a9565b820191906000526020600020905b81548152906001019060200180831161058c57829003601f168201915b5050505050905090565b6000806105be610762565b90506000600160008373ffffffffffffffffffffffffffffffffffffffff1673ffffffffffffffffffffffffffffffffffffffff16815260200190815260200160002060008673ffffffffffffffffffffffffffffffffffffffff1673ffffffffffffffffffffffffffffffffffffffff16815260200190815260200160002054905083811015610684576040517f08c379a000000000000000000000000000000000000000000000000000000000815260040161067b90611619565b60405180910390fd5b610691828686840361076a565b60019250505092915050565b6000806106a8610762565b90506106b58185856109c1565b600191505092915050565b600a8111156106ce57600080fd5b6106d83382610e19565b50565b6000600160008473ffffffffffffffffffffffffffffffffffffffff1673ffffffffffffffffffffffffffffffffffffffff16815260200190815260200160002060008373ffffffffffffffffffffffffffffffffffffffff1673ffffffffffffffffffffffffffffffffffffffff16815260200190815260200160002054905092915050565b600033905090565b600073ffffffffffffffffffffffffffffffffffffffff168373ffffffffffffffffffffffffffffffffffffffff1614156107da576040517f08c379a00000000000000000000000000000000000000000000000000000000081526004016107d1906115f9565b60405180910390fd5b600073ffffffffffffffffffffffffffffffffffffffff168273ffffffffffffffffffffffffffffffffffffffff16141561084a576040517f08c379a000000000000000000000000000000000000000000000000000000000815260040161084190611559565b60405180910390fd5b80600160008573ffffffffffffffffffffffffffffffffffffffff1673ffffffffffffffffffffffffffffffffffffffff16815260200190815260200160002060008473ffffffffffffffffffffffffffffffffffffffff1673ffffffffffffffffffffffffffffffffffffffff168152602001908152602001600020819055508173ffffffffffffffffffffffffffffffffffffffff168373ffffffffffffffffffffffffffffffffffffffff167f8c5be1e5ebec7d5bd14f71427d1e84f3dd0314c0f7b2291e5b200ac8c7c3b925836040516109289190611659565b60405180910390a3505050565b600061094184846106db565b90507fffffffffffffffffffffffffffffffffffffffffffffffffffffffffffffffff81146109bb57818110156109ad576040517f08c379a00000000000000000000000000000000000000000000000000000000081526004016109a490611579565b60405180910390fd5b6109ba848484840361076a565b5b50505050565b600073ffffffffffffffffffffffffffffffffffffffff168373ffffffffffffffffffffffffffffffffffffffff161415610a31576040517f08c379a0000000000000000000000000000000000000000000000000000000008152600401610a28906115d9565b60405180910390fd5b600073ffffffffffffffffffffffffffffffffffffffff168273ffffffffffffffffffffffffffffffffffffffff161415610aa1576040517f08c379a0000000000000000000000000000000000000000000000000000000008152600401610a9890611519565b60405180910390fd5b610aac838383610f79565b60008060008573ffffffffffffffffffffffffffffffffffffffff1673ffffffffffffffffffffffffffffffffffffffff16815260200190815260200160002054905081811015610b32576040517f08c379a0000000000000000000000000000000000000000000000000000000008152600401610b2990611599565b60405180910390fd5b8181036000808673ffffffffffffffffffffffffffffffffffffffff1673ffffffffffffffffffffffffffffffffffffffff16815260200190815260200160002081905550816000808573ffffffffffffffffffffffffffffffffffffffff1673ffffffffffffffffffffffffffffffffffffffff1681526020019081526020016000206000828254610bc591906116ab565b925050819055508273ffffffffffffffffffffffffffffffffffffffff168473ffffffffffffffffffffffffffffffffffffffff167fddf252ad1be2c89b69c2b068fc378daa952ba7f163c4a11628f55a4df523b3ef84604051610c299190611659565b60405180910390a3610c3c848484610f7e565b50505050565b600073ffffffffffffffffffffffffffffffffffffffff168273ffffffffffffffffffffffffffffffffffffffff161415610cb2576040517f08c379a0000000000000000000000000000000000000000000000000000000008152600401610ca9906115b9565b60405180910390fd5b610cbe82600083610f79565b60008060008473ffffffffffffffffffffffffffffffffffffffff1673ffffffffffffffffffffffffffffffffffffffff16815260200190815260200160002054905081811015610d44576040517f08c379a0000000000000000000000000000000000000000000000000000000008152600401610d3b90611539565b60405180910390fd5b8181036000808573ffffffffffffffffffffffffffffffffffffffff1673ffffffffffffffffffffffffffffffffffffffff168152602001908152602001600020819055508160026000828254610d9b9190611701565b92505081905550600073ffffffffffffffffffffffffffffffffffffffff168373ffffffffffffffffffffffffffffffffffffffff167fddf252ad1be2c89b69c2b068fc378daa952ba7f163c4a11628f55a4df523b3ef84604051610e009190611659565b60405180910390a3610e1483600084610f7e565b505050565b600073ffffffffffffffffffffffffffffffffffffffff168273ffffffffffffffffffffffffffffffffffffffff161415610e89576040517f08c379a0000000000000000000000000000000000000000000000000000000008152600401610e8090611639565b60405180910390fd5b610e9560008383610f79565b8060026000828254610ea791906116ab565b92505081905550806000808473ffffffffffffffffffffffffffffffffffffffff1673ffffffffffffffffffffffffffffffffffffffff1681526020019081526020016000206000828254610efc91906116ab565b925050819055508173ffffffffffffffffffffffffffffffffffffffff16600073ffffffffffffffffffffffffffffffffffffffff167fddf252ad1be2c89b69c2b068fc378daa952ba7f163c4a11628f55a4df523b3ef83604051610f619190611659565b60405180910390a3610f7560008383610f7e565b5050565b505050565b505050565b600081359050610f928161185e565b92915050565b600081359050610fa781611875565b92915050565b600060208284031215610fbf57600080fd5b6000610fcd84828501610f83565b91505092915050565b60008060408385031215610fe957600080fd5b6000610ff785828601610f83565b925050602061100885828601610f83565b9150509250929050565b60008060006060848603121561102757600080fd5b600061103586828701610f83565b935050602061104686828701610f83565b925050604061105786828701610f98565b9150509250925092565b6000806040838503121561107457600080fd5b600061108285828601610f83565b925050602061109385828601610f98565b9150509250929050565b6000602082840312156110af57600080fd5b60006110bd84828501610f98565b91505092915050565b6110cf81611747565b82525050565b60006110e08261168f565b6110ea818561169a565b93506110fa81856020860161178a565b6111038161184d565b840191505092915050565b600061111b60238361169a565b91507f45524332303a207472616e7366657220746f20746865207a65726f206164647260008301527f65737300000000000000000000000000000000000000000000000000000000006020830152604082019050919050565b600061118160228361169a565b91507f45524332303a206275726e20616d6f756e7420657863656564732062616c616e60008301527f63650000000000000000000000000000000000000000000000000000000000006020830152604082019050919050565b60006111e760228361169a565b91507f45524332303a20617070726f766520746f20746865207a65726f20616464726560008301527f73730000000000000000000000000000000000000000000000000000000000006020830152604082019050919050565b600061124d601d8361169a565b91507f45524332303a20696e73756666696369656e7420616c6c6f77616e63650000006000830152602082019050919050565b600061128d60268361169a565b91507f45524332303a207472616e7366657220616d6f756e742065786365656473206260008301527f616c616e636500000000000000000000000000000000000000000000000000006020830152604082019050919050565b60006112f360218361169a565b91507f45524332303a206275726e2066726f6d20746865207a65726f2061646472657360008301527f73000000000000000000000000000000000000000000000000000000000000006020830152604082019050919050565b600061135960258361169a565b91507f45524332303a207472616e736665722066726f6d20746865207a65726f20616460008301527f64726573730000000000000000000000000000000000000000000000000000006020830152604082019050919050565b60006113bf60248361169a565b91507f45524332303a20617070726f76652066726f6d20746865207a65726f2061646460008301527f72657373000000000000000000000000000000000000000000000000000000006020830152604082019050919050565b600061142560258361169a565b91507f45524332303a2064656372656173656420616c6c6f77616e63652062656c6f7760008301527f207a65726f0000000000000000000000000000000000000000000000000000006020830152604082019050919050565b600061148b601f8361169a565b91507f45524332303a206d696e7420746f20746865207a65726f2061646472657373006000830152602082019050919050565b6114c781611773565b82525050565b6114d68161177d565b82525050565b60006020820190506114f160008301846110c6565b92915050565b6000602082019050818103600083015261151181846110d5565b905092915050565b600060208201905081810360008301526115328161110e565b9050919050565b6000602082019050818103600083015261155281611174565b9050919050565b60006020820190508181036000830152611572816111da565b9050919050565b6000602082019050818103600083015261159281611240565b9050919050565b600060208201905081810360008301526115b281611280565b9050919050565b600060208201905081810360008301526115d2816112e6565b9050919050565b600060208201905081810360008301526115f28161134c565b9050919050565b60006020820190508181036000830152611612816113b2565b9050919050565b6000602082019050818103600083015261163281611418565b9050919050565b600060208201905081810360008301526116528161147e565b9050919050565b600060208201905061166e60008301846114be565b92915050565b600060208201905061168960008301846114cd565b92915050565b600081519050919050565b600082825260208201905092915050565b60006116b682611773565b91506116c183611773565b9250827fffffffffffffffffffffffffffffffffffffffffffffffffffffffffffffffff038211156116f6576116f56117ef565b5b828201905092915050565b600061170c82611773565b915061171783611773565b92508282101561172a576117296117ef565b5b828203905092915050565b600061174082611753565b9050919050565b60008115159050919050565b600073ffffffffffffffffffffffffffffffffffffffff82169050919050565b6000819050919050565b600060ff82169050919050565b60005b838110156117a857808201518184015260208101905061178d565b838111156117b7576000848401525b50505050565b600060028204905060018216806117d557607f821691505b602082108114156117e9576117e861181e565b5b50919050565b7f4e487b7100000000000000000000000000000000000000000000000000000000600052601160045260246000fd5b7f4e487b7100000000000000000000000000000000000000000000000000000000600052602260045260246000fd5b6000601f19601f8301169050919050565b61186781611735565b811461187257600080fd5b50565b61187e81611773565b811461188957600080fd5b5056fea2646970667358221220adf916b2dd185d980acefab47a3ded35beada9b9abbbbc22fe4d8af63ccbe2cd64736f6c63430008000033",
  "linkReferences": {},
  "deployedLinkReferences": {}
}